{
  "contractName": "DeedMultiPayouts",
  "abi": [
    {
      "inputs": [
        {
          "internalType": "address",
          "name": "_lawyer",
          "type": "address"
        },
        {
          "internalType": "address payable",
          "name": "_beneficiary",
          "type": "address"
        },
        {
          "internalType": "uint256",
          "name": "fromNow",
          "type": "uint256"
        }
      ],
      "stateMutability": "payable",
      "type": "constructor",
      "payable": true
    },
    {
      "inputs": [],
      "name": "INTERVAL",
      "outputs": [
        {
          "internalType": "uint256",
          "name": "",
          "type": "uint256"
        }
      ],
      "stateMutability": "view",
      "type": "function",
      "constant": true
    },
    {
      "inputs": [],
      "name": "PAYOUTS",
      "outputs": [
        {
          "internalType": "uint256",
          "name": "",
          "type": "uint256"
        }
      ],
      "stateMutability": "view",
      "type": "function",
      "constant": true
    },
    {
      "inputs": [],
      "name": "amount",
      "outputs": [
        {
          "internalType": "uint256",
          "name": "",
          "type": "uint256"
        }
      ],
      "stateMutability": "view",
      "type": "function",
      "constant": true
    },
    {
      "inputs": [],
      "name": "beneficiary",
      "outputs": [
        {
          "internalType": "address payable",
          "name": "",
          "type": "address"
        }
      ],
      "stateMutability": "view",
      "type": "function",
      "constant": true
    },
    {
      "inputs": [],
      "name": "earliest",
      "outputs": [
        {
          "internalType": "uint256",
          "name": "",
          "type": "uint256"
        }
      ],
      "stateMutability": "view",
      "type": "function",
      "constant": true
    },
    {
      "inputs": [],
      "name": "lawyer",
      "outputs": [
        {
          "internalType": "address",
          "name": "",
          "type": "address"
        }
      ],
      "stateMutability": "view",
      "type": "function",
      "constant": true
    },
    {
      "inputs": [],
      "name": "paidPayouts",
      "outputs": [
        {
          "internalType": "uint256",
          "name": "",
          "type": "uint256"
        }
      ],
      "stateMutability": "view",
      "type": "function",
      "constant": true
    },
    {
      "inputs": [],
      "name": "withdraw",
      "outputs": [],
      "stateMutability": "nonpayable",
      "type": "function"
    }
  ],
  "bytecode": "0x60806040526040516104c53803806104c583398101604081905261002291610076565b600080546001600160a01b038086166001600160a01b031992831617909255600180549285169290911691909117905561005c81426100b8565b60025561006a600a346100dc565b60035550610114915050565b60008060006060848603121561008a578283fd5b8351610095816100fc565b60208501519093506100a6816100fc565b80925050604084015190509250925092565b600082198211156100d757634e487b7160e01b81526011600452602481fd5b500190565b6000826100f757634e487b7160e01b81526012600452602481fd5b500490565b6001600160a01b038116811461011157600080fd5b50565b6103a2806101236000396000f3fe608060405234801561001057600080fd5b50600436106100885760003560e01c80634a8a7ce31161005b5780634a8a7ce3146100d25780635dd65d3b146100da57806389facb201461008d578063aa8c217c146100e257610088565b80632be521461461008d57806338af3eed146100ab5780633bfb6e31146100c05780633ccfd60b146100c8575b600080fd5b6100956100ea565b6040516100a291906102df565b60405180910390f35b6100b36100ef565b6040516100a29190610255565b6100b36100fe565b6100d061010d565b005b610095610243565b610095610249565b61009561024f565b600a81565b6001546001600160a01b031681565b6000546001600160a01b031681565b6001546001600160a01b031633146101405760405162461bcd60e51b815260040161013790610269565b60405180910390fd5b6002544210156101625760405162461bcd60e51b815260040161013790610293565b600a600454106101845760405162461bcd60e51b8152600401610137906102b6565b6000600a60025442610196919061033f565b6101a09190610300565b90506000600454826101b2919061033f565b9050600a600454826101c491906102e8565b116101cf57806101dd565b6004546101dd90600a61033f565b905080600460008282546101f191906102e8565b90915550506001546003546001600160a01b03909116906108fc906102169084610320565b6040518115909202916000818181858888f1935050505015801561023e573d6000803e3d6000fd5b505050565b60045481565b60025481565b60035481565b6001600160a01b0391909116815260200190565b60208082526010908201526f42656e6566696369617279206f6e6c7960801b604082015260600190565b602080825260099082015268546f6f206561726c7960b81b604082015260600190565b6020808252600f908201526e139bc81c185e5bdd5d1cc81b19599d608a1b604082015260600190565b90815260200190565b600082198211156102fb576102fb610356565b500190565b60008261031b57634e487b7160e01b81526012600452602481fd5b500490565b600081600019048311821515161561033a5761033a610356565b500290565b60008282101561035157610351610356565b500390565b634e487b7160e01b600052601160045260246000fdfea26469706673582212202a3afe23015c0618d0dc0912fb8122dfc5f4b974f260c45530bc0c088fe2ad8964736f6c63430008000033",
  "immutableReferences": {},
  "source": "// SPDX-License-Identifier: MIT \r\npragma solidity ^0.8.0;\r\n\r\ncontract DeedMultiPayouts {\r\n    address public lawyer;\r\n    address payable public beneficiary;\r\n    uint public earliest;\r\n    uint public amount;\r\n    uint constant public PAYOUTS = 10;\r\n    uint constant public INTERVAL = 10;\r\n    uint public paidPayouts;\r\n\r\n    constructor(\r\n        address _lawyer,\r\n        address payable _beneficiary,\r\n        uint fromNow\r\n        ) payable {\r\n        lawyer = _lawyer;\r\n        beneficiary = _beneficiary;\r\n        earliest = block.timestamp + fromNow;\r\n        amount = msg.value / PAYOUTS;\r\n    }\r\n\r\n    function withdraw() public {\r\n        require(msg.sender == beneficiary, 'Beneficiary only');\r\n        require(block.timestamp >= earliest, 'Too early');\r\n        require(paidPayouts < PAYOUTS, 'No payouts left');\r\n        uint elligiblePayouts = (block.timestamp - earliest) / INTERVAL;\r\n        uint duePayouts = elligiblePayouts - paidPayouts;\r\n        duePayouts = (duePayouts + paidPayouts) > PAYOUTS ? (PAYOUTS - paidPayouts) : duePayouts;\r\n        paidPayouts += duePayouts;\r\n        beneficiary.transfer(duePayouts * amount);\r\n    }\r\n}",
  "sourcePath": "C:\\Users\\cassi\\Documents\\DApps\\DeedMultiPayouts\\contracts\\DeedMultiPayouts.sol",
  "compiler": {
    "name": "solc",
    "version": "0.8.0+commit.c7dfd78e.Emscripten.clang"
  },
  "schemaVersion": "3.4.16",
  "updatedAt": "2023-11-15T07:45:28.863Z",
  "networkType": "ethereum",
  "devdoc": {
    "kind": "dev",
    "methods": {},
    "version": 1
  },
  "userdoc": {
    "kind": "user",
    "methods": {},
    "version": 1
  }
}